:100000000C9469000C9491000C9491000C94910054
:100010000C9491000C9491000C9491000C9491001C
:100020000C9491000C9491000C9491000C9491000C
:100030000C9491000C9491000C9491000C949100FC
:100040000C9499110C9491000C94810D0C94CF0D8B
:100050000C9491000C9491000C9491000C949100DC
:100060000C9491000C9491000000000024002700E3
:100070002A0000000000250028002B0000000000DE
:1000800023002600290004040404040404040202DA
:100090000202020203030303030301020408102007
:1000A0004080010204081020010204081020000012
:1000B0000007000201000003040600000000000029
:1000C000000093007C025E030405600AC20A3B0F35
:1000D0009D0F11241FBECFEFD8E0DEBFCDBF11E0D2
:1000E000A0E0B1E0ECEBF6E202C005900D92A03981
:1000F000B107D9F712E0A0E9B1E001C01D92A03E1E
:10010000B107E1F710E0C2EDD0E004C02297FE0194
:100110000E945813C23CD107C9F70E9405100C94E5
:100120005C130C9400000F9385EE91E060E040E0DA
:1001300020E000E00E94910F80E991E060EC48EA45
:1001400021E001EB0E94910F86E991E00E94F50504
:1001500089EC91E064E042E00E9400038BEC91E0C6
:1001600062E042E00E9400030F9108958091CD016A
:10017000813681F08091D5018C3609F44CC08437EA
:1001800059F1883709F0089580914A0160E00E9492
:10019000E21208958091480161E00E94E2126091AC
:1001A000540170915501882777FD8095982F0E9402
:1001B00015128091480160E00E94E21260915401A2
:1001C00070915501882777FD8095982F0E94151210
:1001D0008091D5018437A9F680914A0161E00E949F
:1001E000E2126091540170915501882777FD809546
:1001F000982F0E94151280914A0160E00E94E2123D
:100200006091540170915501882777FD8095982F52
:100210000E94151208958091480160E00E94E21248
:100220008091D501ACCFEF92FF920F931F93DF9394
:10023000CF9300D000D000D0CDB7DEB78EE891E0EC
:100240009A8389838091920190919301A091940166
:10025000B09195018B839C83AD83BE8385EF91E044
:1002600063E371E0AE014F5F5F4F0E9481046091D4
:10027000390170913A0186E991E00E9490068091DF
:1002800050019091510118161906C4F488E4E82E23
:1002900081E0F82E00E010E0F701808161E00E942B
:1002A00076120F5F1F4F82E090E0E80EF91E8091FA
:1002B0005001909151010817190774F38FEA92E0E9
:1002C00040E855E260E070E00E940A0E8091520121
:1002D00061E00E94761289EC91E060E00E94640285
:1002E0008BEC91E060E00E9464028BE061E00E9490
:1002F000E21289EC91E064E60E94640226960FB651
:10030000F894DEBF0FBECDBFCF91DF911F910F914B
:10031000FF90EF900895CF92DF92EF92FF920F93AC
:100320001F93DF93CF93CDB7DEB72C970FB6F8941A
:10033000DEBF0FBECDBF86E991E00E9478058C013B
:100340000097B9F40E94B6006AE070E080E090E0A7
:100350000E9415122C960FB6F894DEBF0FBECDBFCB
:10036000CF91DF911F910F91FF90EF90DF90CF9091
:1003700008958FEA92E060E071E00E9483118FEAB5
:1003800092E0B8014AE050E00E9464118FEA92E0E6
:1003900067E171E00E9483118091A7019091A8010B
:1003A000A091A901B091AA018B839C83AD83BE83E8
:1003B0008E010D5F1F4F26E0E22EF12CEC0EFD1E8C
:1003C00097E0C92ED12CCC0EDD1E8FEA92E0F80109
:1003D00060814AE050E00E9412110E151F0509F0DD
:1003E00066C08FEA92E060E271E00E948311609142
:1003F000AB017091AC018FEA92E04AE050E00E94BC
:10040000F51086E991E061EB71E048E150E00E946F
:100410002A0520E030E0F901E353FE4FD901AF5443
:10042000BE4F8C9180832F5F3F4F2E30310599F75F
:100430008FEA92E069E271E00E9486118FEA92E011
:1004400061EB71E00E9486118EE891E098878F83BE
:100450008091A7019091A801A091A901B091AA0152
:1004600089879A87AB87BC874091AB015091AC01DB
:1004700086E991E0B6010E94EC052BE331E0D90159
:100480000D900020E9F71197A21BB30BE0919601A4
:10049000F09197010280F381E02D86E991E0B901A6
:1004A000AD01099586E991E00E94E7054BCF8FEAFF
:1004B00092E06EE171E00E9483110F5F1F4F0C15F7
:1004C0001D0509F082CF8DCFFC01E081E23069F09B
:1004D000E33018F4E13079F405C0E33049F0E4305A
:1004E00051F408C06093B30008956093B400089578
:1004F00067BD089568BD08951092EB010895E0EB83
:10050000F0E090819368908387708093B10010929F
:10051000B3008BE061E00E9476120895E0EBF0E01A
:1005200090819362908387708093B1001092B400A1
:1005300083E061E00E947612089584B5836884BDEB
:1005400017BC86E061E00E947612089584B583624C
:1005500084BD18BC85E061E00E9476120895CF93B7
:10056000DF938CE060E00E94E21288E060E00E948D
:10057000E212C7E0D0E084E060E00E94E2128091E5
:10058000EC0190E00C2E02C0959587950A94E2F755
:1005900080FF03C088E061E002C088E060E00E9464
:1005A000E21284E061E00E94E21221978FEFCF3FD8
:1005B000D80709F78CE061E00E94E212DF91CF9149
:1005C00008950F931F938C018CE061E00E947612D6
:1005D00087E061E00E94761288E061E00E94761276
:1005E00084E061E00E9476121092EC01C8010E9442
:1005F000AF0287E060E00E94E2121F910F91089520
:100600000F931F93FC01162F042F608341838BEE01
:1006100091E00E94E1021230B9F0133018F4113069
:10062000C9F505C01330E9F01430A1F527C0809159
:10063000EC01837F8093EC018BEE91E00E94AF028E
:10064000802F0E947F0226C08091EC018D7E8093D6
:10065000EC018BEE91E00E94AF02802F0E948E028F
:1006600019C08091EC018F758093EC018BEE91E0C5
:100670000E94AF02802F0E949D020CC08091EC016D
:100680008E7B8093EC018BEE91E00E94AF02802F75
:100690000E94A6021F910F910895DB01FC012EE834
:1006A00031E03183208312962D913D914D915C91E3
:1006B0001597228333834483558308950F938DEFD9
:1006C00091E060E040E020E000E00E94910F85EFC3
:1006D00091E00E94FB0F0F9108956F927F928F928D
:1006E0009F92AF92BF92CF92DF92EF92FF920F93C1
:1006F0001F933C015B016A0149018BE092E00E947B
:10070000170A89E090E0B50146E050E00E944108F8
:1007100082E090E0C80ED91E8FE090E0B60144E080
:1007200050E00E9441080E5F1F4F81E090E0B80149
:1007300044E050E00E944108E2E0F0E0EE0EFF1ECF
:1007400085E090E0B70144E050E00E944108F401E8
:1007500082819381A481B581F30182839383A483F1
:10076000B5831F910F91FF90EF90DF90CF90BF90D6
:10077000AF909F908F907F906F9008956F927F922F
:100780008F929F92AF92BF92CF92DF92EF92FF92A1
:100790000F931F93DF93CF93CDB7DEB76E970FB64E
:1007A000F894DEBF0FBECDBF4C013B017A01690159
:1007B0005801CE0101966FEF4FEF2FEF00E00E943E
:1007C000910F2EE831E038872F83F70182819381E2
:1007D000A481B58189879A87AB87BC873E872D879F
:1007E000F60182819381A481B5818F87988BA98B33
:1007F000BA8B3C8B2B8BF50182819381A481B581CF
:100800008D8B9E8BAF8BB88F3A8F298F8B819C817C
:10081000AD81BE818B8F9C8FAD8FBE8FC401B30124
:10082000AE01495F5F4F9E01235F3F4F8E010D5E1A
:100830001F4FE9E1EE2EF12CEC0EFD1E0E946D0320
:100840006E960FB6F894DEBF0FBECDBFCF91DF918D
:100850001F910F91FF90EF90DF90CF90BF90AF90DE
:100860009F908F907F906F9008950F931F93DF93C9
:10087000CF93CDB7DEB768970FB6F894DEBF0FBE43
:10088000CDBFFA01D90122813381448155812B8367
:100890003C834D835E83EEE8F1E0F887EF832987A0
:1008A0003A874B875C87FE87ED8712962D913D91A5
:1008B0004D915C9115972F87388B498B5A8BFC8B08
:1008C000EB8B21E02E832B813C814D815E812D8B32
:1008D0003E8B4F8B588FAE01495F5F4F9E01235F68
:1008E0003F4F8E010D5E1F4F0E94BE0368960FB6EC
:1008F000F894DEBF0FBECDBFCF91DF911F910F9156
:100900000895DF93CF93CDB7DEB762970FB6F89413
:10091000DEBF0FBECDBFFA012281338144815581F4
:100920002B833C834D835E83EEE8F1E0F887EF8311
:1009300029873A874B875C87FE87ED8721E02E83E6
:100940002B813C814D815E812F87388B498B5A8B5F
:10095000AE01495F5F4F9E01235F3F4F0E94350408
:1009600062960FB6F894DEBF0FBECDBFCF91DF9178
:100970000895DC01ED91FC91008CF18DE02D09953D
:100980000895DB01FC012EE831E03183208351968C
:100990002D913D914D915C915497228333834483F3
:1009A00055830895FC01858996890895FC01818D00
:1009B000928D0895DF93CF930F92CDB7DEB7FC01F0
:1009C0006983A081B18112962D913C911397BE014C
:1009D0006F5F7F4F41E050E0F90109950F90CF9193
:1009E000DF910895CF93DF93EC0107C0E881F9818F
:1009F0000680F781E02DCE010995898D9A8D892B8E
:100A0000A9F7DF91CF9108950F9383E092E060E022
:100A100040E020E000E00E94910F0F910895DF93E5
:100A2000CF930F92CDB7DEB7FC01818D928D892BCC
:100A300019F42FEF3FEF09C08485BE016F5F7F4F30
:100A40000E94D8078981282F30E0C9010F90CF91EB
:100A5000DF910895CF93DF93EC019A01498D5A8D70
:100A600041155105A1F02417350710F08C8502C0FF
:100A70008C85A9010E94E7079C01181619063CF411
:100A8000898D9A8D821B930B9A8F898F02C02FEFCD
:100A90003FEFC901DF91CF9108950F931F93DF932B
:100AA000CF930F92CDB7DEB78C01FC01818D928D73
:100AB000892BA9F08485BE016F5F7F4F41E050E034
:100AC0000E94E7071816190654F4F801818D928DDB
:100AD0000197928F818F8981282F30E002C02FEFFC
:100AE0003FEFC9010F90CF91DF911F910F910895B2
:100AF000EF92FF920F931F93DF93CF93CDB7DEB7A3
:100B000028970FB6F894DEBF0FBECDBF8C01DC0175
:100B1000ED91FC910284F385E02D09958BE092E044
:100B2000F80164850E940909892B19F420E030E05E
:100B300025C0D8011C968C917E010894E11CF11C03
:100B4000B70148E050E00E94E7079C01181619061B
:100B5000ACF4C8010F96B7010E94EE0F9D8180E0B2
:100B60002E81820F911DF801968B858B9F8180E0ED
:100B70002885820F911D928F818F9C01C901289633
:100B80000FB6F894DEBF0FBECDBFCF91DF911F919E
:100B90000F91FF90EF9008950F931F938C01FB012D
:100BA0009A01DC0157966D917C9158971C968C9117
:100BB000AF010E94A8079C01F8018789908D820FE0
:100BC000931F908F878BC9011F910F910895FC018E
:100BD00084850E94DE060895FC01108E178A6E5FE0
:100BE0007F4F84850E9482070895FC011382128240
:100BF00088EE93E0A0E0B0E084839583A683B7837A
:100C00008AE591E09183808384E08487CF010F9609
:100C10000E94FB0F08956F927F928F929F92AF92E6
:100C2000BF92CF92DF92EF92FF920F931F93DF93C9
:100C3000CF93CDB7DEB7E5970FB6F894DEBF0FBE02
:100C4000CDBF4C015B013A0183E1E82EF12CEC0EA3
:100C5000FD1EC7010E94FB0FCE014B960E94F505B9
:100C60006E010894C11CD11CC6010E94FB0F8E01AD
:100C7000095F1F4FC80165EF71E00E944D03C70176
:100C8000B8010E946B0AC701B501A6010E94EA0CD7
:100C90009C0181309105C9F4D401ED91FC9100884B
:100CA000F189E02D8EE891E09E878D878B819C8174
:100CB000AD81BE818F87988BA98BBA8BC401BE0191
:100CC000635F7F4FA30109959C01C901E5960FB6AB
:100CD000F894DEBF0FBECDBFCF91DF911F910F9172
:100CE000FF90EF90DF90CF90BF90AF909F908F904C
:100CF0007F906F900895CF93DF93EC018C858430C3
:100D000061F00E940A07EC85F0E0EE0FFF1FE3514F
:100D1000FE4F1182108284E08C87DF91CF9108957D
:100D2000CF92DF92EF92FF920F931F93CF93DF93B7
:100D30007C016B01FC018485843019F5C0E0D0E0B2
:100D400003E014E0C8010E946808882311F088318C
:100D500019F4F701C48706C0219600501F4FC43014
:100D6000D10581F7F7018485843059F0D686C58690
:100D7000128E118E62E0A60120E00E943F0781E002
:100D800001C080E0DF91CF911F910F91FF90EF9014
:100D9000DF90CF90089590E00496982F8827860FD3
:100DA000971F0E946808089590E00496982F88275E
:100DB000860F971F642F0E94270808951F93182FEE
:100DC0008BE092E0612F40E250E00E94050A10C0E3
:100DD000812F62E070E00E94CB0683FF09C0812F63
:100DE00062E070E048E10E94D40620E030E00FC0ED
:100DF000812F62E070E00E94CB0684FFE9CF812F53
:100E000062E070E040E10E94D40621E030E0C901D8
:100E10001F9108951F93182F8BE092E0612F40E1FE
:100E200050E00E94050A812F62E070E04FEF0E94BF
:100E3000D4061F9108950F931F93182F062F472F45
:100E400060E170E00E94D406812F61E170E0402FE4
:100E50000E94D4061F910F9108950F931F93182F8E
:100E6000062F472F64E070E00E94D406812F65E0D2
:100E700070E0402F0E94D4061F910F910895FF92B9
:100E80000F931F93CF93DF93082FF62EEA01122FB3
:100E9000862F8150853010F080E024C0802F0E9482
:100EA0000A071F29802F60E070E0412F0E94D406BE
:100EB000209719F0802FBE010BC06091090270913C
:100EC0000A026F5F7F4F70930A0260930902802FBE
:100ED0000E942D078BE092E0602F41E050E00E94DD
:100EE000050A81E0DF91CF911F910F91FF90089546
:100EF00090E0982F8827845F9B4F44E050E00E9449
:100F0000410808951F93CF93DF93182FFB01EA0147
:100F10008081882349F48181882331F48281882368
:100F200019F48381882369F0209759F0812FBF013C
:100F30000E947807812FBE010E941B0721E030E04C
:100F400002C020E030E0C901DF91CF911F910895E8
:100F5000AF92BF92DF92EF92FF920F931F93CF93C6
:100F6000DF93D82EEB015A0189018BE092E06D2DC1
:100F70000E943C098017910710F0780106C08BE0B1
:100F800092E06D2D0E943C097C018BE092E06D2D7A
:100F9000AE01950187010E948108C701DF91CF91C1
:100FA0001F910F91FF90EF90DF90BF90AF90089549
:100FB0000F93282FAB018BE092E0622F21E030E00D
:100FC00001E00E94BA0981E090E00F910895CF926C
:100FD000DF92FF920F931F93CF93DF93F82E6B0155
:100FE0008A018BE092E06F2D0E940909EC010097C5
:100FF00061F48F2D63E070E00E94CB068431D9F05C
:101000008823C9F08C31B9F01FC0081719070CF4F8
:10101000E8011C161D067CF48BE092E06F2DA60102
:101020009E0100E00E94BA098BE092E06F2D40E43F
:1010300050E00E94050ACE01DF91CF911F910F91E0
:10104000FF90DF90CF900895CFEFDFEFF4CF282F00
:101050002A9880EF8EBD0DB407FEFDCF8EB59EBDE4
:101060000DB407FEFDCF8EB52EBD0DB407FEFDCF2E
:101070008EB56EBD0DB407FEFDCF8EB52A9A81E008
:101080000895DC0120E030E090EF1DC02A989EBD5D
:101090000DB407FEFDCF8EB5BEBD0DB407FEFDCF6E
:1010A0008EB5AEBD0DB407FEFDCF8EB5FB01E20FD0
:1010B000F31F80818EBD0DB407FEFDCF11968EB556
:1010C0002A9A2F5F3F4F2417350700F3CA0108956E
:1010D000282F2A988FE08EBD0DB407FEFDCF8EB568
:1010E0009EBD0DB407FEFDCF8EB52EBD0DB407FE1F
:1010F000FDCF8EB51EBC0DB407FEFDCF8EB52A9A6E
:1011000008957F928F929F92AF92BF92CF92DF927B
:10111000EF92FF920F931F93CF93DF936C01762E84
:101120007A0149015801862F64E270E00E94CB06E3
:10113000182F872D65E270E00E94CB06C82FD0E003
:10114000912F80E0C82BD92BCE0DDF1DAE0157703B
:10115000872D90E0880F991FC80ED91EF6012081B7
:101160003181240F351FCA018A0D9B1D8150984083
:1011700098F000E018E0041B150BC901B401A801A8
:101180000E944108A501401B510BF601808191810D
:10119000080D191DB80103C0C901B401A5010E94C1
:1011A00041087E01EA0CFB1C072D10E00C5F1F4F6D
:1011B000102F0027C80184966F2D0E942708C801B0
:1011C00085966E2D0E942708DF91CF911F910F9178
:1011D000FF90EF90DF90CF90BF90AF909F908F9057
:1011E0007F9008950F931F93182F66E270E00E947E
:1011F000CB06082F812F67E270E00E94CB06502FAC
:1012000040E0282F30E0242B352BC9011F910F918E
:101210000895FF920F931F93CF93DF93F62EC0E0B4
:10122000D0E08F2D0E94F2088C01009721F08F2DC5
:101230000E94F208EC01C017D10799F7CE01DF91A7
:10124000CF911F910F91FF9008950F931F93182F27
:1012500060E270E00E94CB06082F812F61E270E00F
:101260000E94CB06502F40E0282F30E0242B352B56
:10127000C9011F910F910895FF920F931F93CF9370
:10128000DF93F62EC0E0D0E08F2D0E9425098C015F
:10129000009721F08F2D0E942509EC01C017D1077E
:1012A00099F7CE01DF91CF911F910F91FF90089593
:1012B000DC0120E030E09FE01DC02A989EBD0DB407
:1012C00007FEFDCF8EB5BEBD0DB407FEFDCF8EB5BA
:1012D000AEBD0DB407FEFDCF8EB51EBC0DB407FE2E
:1012E000FDCF11968EB5FB01E20FF31F80832A9A82
:1012F0002F5F3F4F2417350700F3CA010895CF929F
:10130000DF92EF92FF920F931F93CF93DF936901C8
:1013100078015770C62FD0E02496CC0FDD1FC80F80
:10132000D91F28813981240F351FC801840F951FCB
:101330008150984088F000E018E0041B150BC901AB
:10134000B601A8010E945809E01AF10A8881998122
:101350000C0D1D1DB80102C0C901B601A7010E94F4
:101360005809DF91CF911F910F91FF90EF90DF907F
:10137000CF9008958F929F92AF92BF92CF92DF92BB
:10138000EF92FF920F931F93CF93DF937C01A62ED2
:101390006A014901B02E862F68E270E00E94CB06F8
:1013A000182F8A2D69E270E00E94CB06C82FD0E08A
:1013B000912F80E0C82BD92BC7016A2DAE01960171
:1013C00084010E947F09BB2099F47E01E80CF91C7E
:1013D0000A2D10E00C5F1F4F102F0027C8018896C0
:1013E0006F2D0E942708C80189966E2D0E9427083C
:1013F000DF91CF911F910F91FF90EF90DF90CF90F1
:10140000BF90AF909F908F9008951F93162F962FA7
:1014100080E08F5F9B4F642F0E942708812F61E03F
:1014200070E00E94CB068823C9F71F9108950F939F
:101430001F93182F092F6CE271E080E090E00E946A
:1014400015120E94490A229A80E090E060E80E940A
:1014500027088BE190E065E50E9427088AE190E08B
:1014600065E50E942708212F302FC901FC0180E08B
:1014700090E4918380838050904E91878087805044
:101480009841329620E68030920799F71F910F918C
:1014900008958AE061E00E94E2128AE061E00E9421
:1014A00076128CB580618CBD8CB580648CBD8DE06E
:1014B00061E00E9476128BE061E00E94761208954E
:1014C0000F938BE192E060E040E020E000E00E94BA
:1014D000910F0F9108959C01FB0182819381A4815A
:1014E000B581F90182839383A483B5831782168221
:1014F0000895CF93DF93FB0101C03196808188234B
:10150000E1F7EB01A0E0B0E020E030E021C06E3276
:1015100061F42F3F310509F07CF5FA01EA0FFB1F5A
:101520002283119620E030E012C0C901E3E0880F69
:10153000991FEA95E1F7220F331F820F931F262F81
:10154000332727FD309520533040280F391F21962F
:101550006881662319F0A430B105CCF22F3F310524
:1015600009F054F4A430B1053CF4A40FB51F129651
:101570002C9321E030E002C020E030E0C901DF918F
:10158000CF9108950F9381E292E060E040E020E087
:1015900000E00E94910F0F9108952F923F924F9279
:1015A0005F926F927F928F929F92AF92BF92CF92F3
:1015B000DF92EF92FF920F931F93DF93CF93CDB7FC
:1015C000DEB769970FB6F894DEBF0FBECDBF4C01F2
:1015D0008B011A010E94E1112B013C01F8E0EF2E72
:1015E000F12CE80CF91C5801CC24DD2414C00E9415
:1015F000E1116419750986099709A616B706C80688
:10160000D90618F42FEF3FEF0BC162E370E080E0E2
:1016100090E00E941512C7010E947805181619065D
:1016200034F7F4012281338144815581818D928D7B
:10163000A38DB48D8A879B87AC87BD872817390710
:101640004A075B0709F0EAC0858D968DC59709F0BA
:10165000E5C000C18E01025F1F4FC701B8014CE019
:1016600050E00E942A05F801528143815B834A833E
:10167000F401268137818E859F852817390711F45B
:1016800057FD06C0C7010E94F2042CEF3FEFC8C00F
:101690004F705270452B31F0C7010E94F2042BEFBE
:1016A0003FEFBEC0F801768067806114710441F09D
:1016B000AA24BB2448012E010894411C511C28C0B7
:1016C000C7010E94F2042AEF3FEFAAC0C701B2018E
:1016D00041E050E00E942A058981882321F408C056
:1016E000C7010E944D058981815089838F5FC1F7B1
:1016F0008981882359F700E010E0C7010E944D0559
:101700000F5F1F4F04301105C1F70894A11CB11CD5
:10171000F401D480C580AC14BD04C0F24424552427
:10172000C701BE016F5F7F4F41E050E00E942A0574
:101730009981892F807C61F4992321F40DC0C70120
:101740000E944D058981815089838F5FC1F704C054
:10175000C7010E944D0519828981882309F7C701B5
:10176000BE016C5F7F4F42E050E00E942A05C70136
:10177000BE016A5F7F4F42E050E00E942A0500E010
:1017800010E0C7010E944D050F5F1F4F0430110587
:10179000C1F7C701BE016E5F7F4F42E050E00E947B
:1017A0002A05DC80CD80F1E0CF16D10419F5BE808A
:1017B000AF8081E0A816B104E9F49A818B81049787
:1017C00031F0C7010E94F20427EF3FEF29C0E2E0A9
:1017D000F0E02E0E3F1EC701B10144E050E00E9430
:1017E0002A0521E030E01CC0C7010E944D050F5FB3
:1017F0001F4F02C000E010E09A808B800815190589
:1018000098F30894411C511C4614570408F488CFDF
:10181000C7010E94F20426EF3FEF02C02EEF3FEF18
:10182000C90169960FB6F894DEBF0FBECDBFCF9148
:10183000DF911F910F91FF90EF90DF90CF90BF90BD
:10184000AF909F908F907F906F905F904F903F9060
:101850002F9008958EE891E099878887C7010E94AC
:10186000D6040C970CF0F6CE2DEF3FEFD9CF6F9248
:101870007F928F929F92AF92BF92CF92DF92EF9220
:10188000FF920F931F93DF93CF9300D00F92CDB7AA
:10189000DEB78C01F62EE72E0E94E111F801778366
:1018A0006683B8E0CB2ED12CC00ED11E0A5F1F4F2D
:1018B000C601B80142E050E00E94CC0581E090E012
:1018C0009B838A83A2E08A2E912C8C0E9D1EC601DA
:1018D000B40142E050E00E94CC0580E091E09B839F
:1018E0008A83C601B40142E050E00E94CC051B820D
:1018F0001A82C601B40142E050E00E94CC05C60144
:10190000B40142E050E00E94CC05C601B40142E0BF
:1019100050E00E94CC052F2D3E2DC9018C017C0189
:101920003E010894611C711C20C00894E11CF11C4C
:10193000F7018081882311F08E32B9F75701A01A80
:10194000B10A1A141B0474F48E2D801B8983C601FE
:10195000B30141E050E00E94CC05C601B801A501E9
:101960000E94CC0587010F5F1F4FF70180818823FC
:1019700011F07801DDCF1982C601BE016F5F7F4F84
:1019800041E050E00E94CC0500E011E01B830A8397
:10199000C601B40142E050E00E94CC051B830A83DB
:1019A000C601B40142E050E00E94CC0581E090E025
:1019B0000F900F900F90CF91DF911F910F91FF909B
:1019C000EF90DF90CF90BF90AF909F908F907F90DF
:1019D0006F9008958F929F92AF92BF92CF92DF92B5
:1019E000EF92FF920F931F93DF93CF9300D000D01D
:1019F00000D0CDB7DEB76C017B014A010E94790AA5
:101A0000892B19F001E010E067C0F60122813381D3
:101A1000448155818091230290912402A091250256
:101A2000B0912602281739074A075B0719F40EEF11
:101A30001FEF52C018E0A12EB12CAC0CBD1C0E94AF
:101A4000E1119B01AC012F70307020503C4FC5015B
:101A5000B9010E949006813019F000E010E03CC00E
:101A60008EE891E09A838983F60182819381A48133
:101A7000B5818B839C83AD83BE83C501BE016F5F3F
:101A80007F4F45E350E00E94EC058C01009709F17F
:101A9000C601B7010E94370C8C010097D1F0C50137
:101AA0000E94E7058C010097A1F0EE24FF24C601F7
:101AB00068E873E1A4010E94CD0A8C010894E11C3E
:101AC000F11CF3E0EF16F10421F08FEF0F3F180740
:101AD00071F3C5010E947B06C80126960FB6F894E3
:101AE000DEBF0FBECDBFCF91DF911F910F91FF9051
:101AF000EF90DF90CF90BF90AF909F908F90089520
:101B000008951F920F920FB60F9211242F933F93B7
:101B10004F938F939F93EF93FF938091C00082FD2B
:101B20001DC04091C60020916702309168022F5F6E
:101B30003F4F2F7330708091690290916A0228178D
:101B4000390771F0E0916702F0916802E95DFD4F9D
:101B50004083309368022093670202C08091C600E0
:101B6000FF91EF919F918F914F913F912F910F9006
:101B70000FBE0F901F901895E091BB02F091BC0230
:101B8000E05CFF4F8191919120813181821B930B09
:101B90008F739070892B11F00E94800D08951F9211
:101BA0000F920FB60F9211242F933F938F939F9311
:101BB000EF93FF932091AB023091AC028091AD0284
:101BC0009091AE022817390731F48091C1008F7DC2
:101BD0008093C10014C0E091AD02F091AE02E559CE
:101BE000FD4F20818091AD029091AE0201968F73DE
:101BF00090709093AE028093AD022093C600FF9147
:101C0000EF919F918F913F912F910F900FBE0F9069
:101C10001F901895AF92BF92DF92EF92FF920F93B1
:101C20001F93CF93DF93EC017A018B01DD244030C9
:101C300081EE580780E0680780E0780711F0DD2426
:101C4000D39491E0A92EB12CEC89FD89DD2069F0B7
:101C5000C50108A002C0880F991F0A94E2F780838B
:101C600060E079E08DE390E005C0108260E874E800
:101C70008EE190E0A80197010E943413215030407A
:101C800040405040569547953795279580E1203044
:101C9000380720F0DD2011F0DD24D6CFE889F9895E
:101CA0003083EA89FB89208319A2EE89FF8940816C
:101CB00021E030E0C9010C8C02C0880F991F0A9402
:101CC000E2F7482B4083EE89FF894081C9010D8CE2
:101CD00002C0880F991F0A94E2F7482B4083EE89CF
:101CE000FF894081C9010E8C02C0880F991F0A9498
:101CF000E2F7482B4083EE89FF8980810F8C02C078
:101D0000220F331F0A94E2F7209528232083DF91C6
:101D1000CF911F910F91FF90EF90DF90BF90AF9008
:101D20000895DC011C96ED91FC911D97E05CFF4F3E
:101D30002191319180819181281B390B2F73307053
:101D4000C9010895DC011C96ED91FC911D97E05CA2
:101D5000FF4F20813181E054F040DF01AE5BBF4F87
:101D60008D919C9111972817390719F42FEF3FEFA8
:101D700007C08D919C91E80FF91F8081282F30E0DA
:101D8000C9010895DC011C96ED91FC911D97E05C62
:101D9000FF4F20813181E054F040DF01AE5BBF4F47
:101DA0008D919C9111972817390719F42FEF3FEF68
:101DB00010C08D919C911197E80FF91F20818D9192
:101DC0009C91119701968F73907011969C938E93AE
:101DD00030E0C9010895DC0191968C919197882398
:101DE00039F05496ED91FC915597808186FFF9CF9B
:101DF00091961C920895CF93DF93EC01EE85FF85B9
:101E0000E05CFF4F20813181E054F0402F5F3F4F75
:101E10002F733070DF01AE5BBF4F8D919C91119796
:101E200028173907D1F3E05CFF4F80819181E0549E
:101E3000F040E80FF91F6083EE85FF85E05CFF4FFF
:101E400031832083EE89FF89208181E090E00F8C2F
:101E500002C0880F991F0A94E2F7282B208381E0A3
:101E600089A3EC89FD8980818064808381E090E092
:101E7000DF91CF9108951092B2021092B10288EED4
:101E800093E0A0E0B0E08093B3029093B402A093FB
:101E9000B502B093B6028EE791E09093B0028093C2
:101EA000AF0287E292E09093BC028093BB028BE684
:101EB00092E09093BE028093BD0285EC90E09093F7
:101EC000C0028093BF0284EC90E09093C2028093A2
:101ED000C10280EC90E09093C4028093C30281EC35
:101EE00090E09093C6028093C50282EC90E09093BC
:101EF000C8028093C70286EC90E09093CA02809358
:101F0000C90284E08093CB0283E08093CC0287E017
:101F10008093CD0285E08093CE0281E08093CF0252
:101F200008950F93FC018EE891E091838083628392
:101F30004383248305830F9108958EE891E0909365
:101F4000D2028093D1021092D3021092D402109246
:101F5000D5021092D60208958F929F92AF92BF92AF
:101F6000CF92DF92EF92FF920F931F93CF93DF9365
:101F70004C016B017C01AA24BB24C0E0D0E0C60167
:101F8000F70162814AE050E00E9412118C01C60103
:101F90006EE20E943E10080F191FA00EB11E21967E
:101FA0000894E11CF11CC330D10549F7C601F401C6
:101FB00065814AE050E00E9412119501280F391FF7
:101FC000C901DF91CF911F910F91FF90EF90DF90AA
:101FD000CF90BF90AF909F908F9008959C01FB0190
:101FE00080819181A281B381F90182839383A4834B
:101FF000B583C9010895FC018EE891E09183808347
:1020000012821382148215820895CF93DF930E9467
:102010003B120E941301CCEBDDE00E948B01209764
:10202000E1F30E94BC0DF9CFCF92DF92EF92FF92C5
:102030000F931F93CF93DF937C016B018A01C0E064
:10204000D0E00FC0D6016D916D01D701ED91FC91EB
:102050000190F081E02DC7010995C80FD91F0150EB
:1020600010400115110571F7CE01DF91CF911F913D
:102070000F91FF90EF90DF90CF900895DC01ED91EC
:10208000FC910190F081E02D09950895EF92FF9267
:102090000F931F938C01DC01ED91FC910190F08175
:1020A000E02D6DE009957C01D801ED91FC91019046
:1020B000F081E02DC8016AE009959C012E0D3F1DBD
:1020C000C9011F910F91FF90EF900895CF93DF9377
:1020D000EC016115710519F420E030E00FC0DB015F
:1020E0000D900020E9F71197A61BB70BE881F98145
:1020F0000280F381E02DAD0109959C01C901DF91BA
:10210000CF9108954F925F927F928F929F92AF925C
:10211000BF92CF92DF92EF92FF920F931F93DF93C4
:10212000CF93CDB7DEB7A1970FB6F894DEBF0FBE41
:10213000CDBF2C01742ECB01223008F42AE019A265
:1021400031E2C32ED12CCC0EDD1E822E9924AA247E
:10215000BB24672D752FA50194010E9434137901CA
:102160008A01C801B701A50194010E941513472DEA
:10217000461B0894C108D1084A3014F4405D01C0E0
:10218000495CF6014083E114F1040105110521F0D9
:102190007E2C5F2DC801DDCFC201B6010E94661002
:1021A000A1960FB6F894DEBF0FBECDBFCF91DF91E1
:1021B0001F910F91FF90EF90DF90CF90BF90AF9065
:1021C0009F908F907F905F904F900895DC01211534
:1021D000310541F4ED91FC910190F081E02D642FE7
:1021E000099508950E9482100895CF92DF92EF9290
:1021F000FF920F931F936C017B019A0100E010E0A6
:10220000B801A7010E94E6108C01C6010E94461089
:10221000080F191FC8011F910F91FF90EF90DF90D9
:10222000CF900895EF92FF920F931F939A01E62E9D
:10223000FF2400E010E0B801A7010E94E6101F9102
:102240000F91FF90EF900895CF92DF92EF92FF925F
:102250000F931F93CF93DF93EC016A017B0121154C
:10226000310541F4E881F9810190F081E02D642F7E
:1022700009951FC02A303105D1F477FF17C0E881D6
:10228000F9810190F081E02D6DE209958C014427E0
:102290005527BA014C195D096E097F09CE012AE064
:1022A0000E9482109801280F391F04C02AE00E9462
:1022B00082109C01C901DF91CF911F910F91FF9076
:1022C000EF90DF90CF900895CF92DF92EF92FF9240
:1022D0000F931F936C017B019A010027F7FC009577
:1022E000102FB801A7010E9424118C01C6010E9481
:1022F0004610080F191FC8011F910F91FF90EF9012
:10230000DF90CF9008950E9466100895EF92FF929B
:102310000F931F937C010E9466108C01C7010E94DD
:102320004610080F191FC8011F910F91FF90EF90E1
:1023300008951F920F920FB60F9211242F933F937F
:102340008F939F93AF93BF938091DB029091DC02B8
:10235000A091DD02B091DE023091DF020196A11D55
:10236000B11D232F2D5F2D3720F02D570196A11D74
:10237000B11D2093DF028093DB029093DC02A093D7
:10238000DD02B093DE028091D7029091D802A09135
:10239000D902B091DA020196A11DB11D8093D70236
:1023A0009093D802A093D902B093DA02BF91AF9173
:1023B0009F918F913F912F910F900FBE0F901F9083
:1023C00018958FB7F8942091DB023091DC02409190
:1023D000DD025091DE028FBFB901CA0108959FB797
:1023E000F8942091D7023091D8024091D9025091AF
:1023F000DA0286B5A89B06C08F3F21F02F5F3F4FC2
:102400004F4F5F4F9FBF542F432F322F2227280F4C
:10241000311D411D511D82E0220F331F441F551FE6
:102420008A95D1F7B901CA010895EF92FF920F93EF
:102430001F93CF93DF937B018C010E94EF11EB017F
:102440000EC00E94EF116C1B7D0B685E7340C8F3D9
:102450000894E108F10801091109C851DC4FE114A1
:10246000F1040105110569F7DF91CF911F910F91DB
:10247000FF90EF900895789484B5826084BD84B510
:10248000816084BD85B5826085BD85B5816085BD6F
:10249000EEE6F0E0808181608083E1E8F0E0108288
:1024A000808182608083808181608083E0E8F0E0C9
:1024B000808181608083E1EBF0E0808184608083B3
:1024C000E0EBF0E0808181608083EAE7F0E08081EA
:1024D000846080838081826080838081816080834A
:1024E0008081806880831092C1000895CF93DF932C
:1024F000482F50E0CA0186569F4FFC0134914A573D
:102500005F4FFA018491882369F190E0880F991F49
:10251000FC01E859FF4FA591B491FC01EE58FF4F23
:10252000C591D491662351F42FB7F8948C91932FD1
:10253000909589238C93888189230BC0623061F444
:102540002FB7F8948C91932F909589238C93888141
:10255000832B88832FBF06C09FB7F8948C91832B61
:102560008C939FBFDF91CF910895833071F08430B9
:1025700028F48130A1F0823021F514C08630B1F00A
:102580008730D1F08430E9F404C0809180008F77E7
:1025900003C0809180008F7D80938000089584B572
:1025A0008F7702C084B58F7D84BD08958091B0007F
:1025B0008F778093B00008958091B0008F7D8093D5
:1025C000B0000895FF920F931F93F62E482F50E00E
:1025D000CA0182559F4FFC012491CA0186569F4F24
:1025E000FC0114914A575F4FFA0104910023C9F08E
:1025F000222319F0822F0E94B512E02FF0E0EE0F97
:10260000FF1FEE58FF4FA591B4919FB7F894FF209C
:1026100021F48C911095812302C08C91812B8C9395
:102620009FBF1F910F91FF900895629FD001739FEC
:10263000F001829FE00DF11D649FE00DF11D929F5E
:10264000F00D839FF00D749FF00D659FF00D99279D
:10265000729FB00DE11DF91F639FB00DE11DF91FC1
:10266000BD01CF0111240895A1E21A2EAA1BBB1BA4
:10267000FD010DC0AA1FBB1FEE1FFF1FA217B3074E
:10268000E407F50720F0A21BB30BE40BF50B661F64
:10269000771F881F991F1A9469F760957095809528
:1026A00090959B01AC01BD01CF010895EE0FFF1F76
:0C26B0000590F491E02D0994F894FFCF00
:1026BC005265636569766564207061636B6574202F
:1026CC0073697A653A200046726F6D3A20002E00CD
:1026DC002C20706F72743A2000436F6E74656E74A8
:1026EC00733A00DEADBEEFFEEDB82261636B6E6F28
:1026FC00776C6564676564000700080009000A00D0
:10270C0004000B00200300000000DA04CC05D60402
:10271C004D050F05F20490067B06EC050B06E7054C
:10272C0078052A05B904C104D20400000000FB0E90
:10273C001410910EC20EA20EEB0E00000000AC0F96
:00000001FF
